:100000000C945D000C9485000C9485000C94850084
:100010000C9485000C9485000C9485000C9485004C
:100020000C9485000C9485000C9485000C9485003C
:100030000C9485000C9485000C9485000C9485002C
:100040000C9455050C9485000C9485000C94850047
:100050000C9485000C9485000C9485000C9485000C
:100060000C949F050C94850000000008000201001C
:100070000003040700000000000000000000000072
:10008000250028002B0000000000240027002A0083
:10009000040404040404040402020202020203032E
:1000A0000303030301020408102040800102040836
:1000B0001020010204081020BE0611241FBECFEF3D
:1000C000D8E0DEBFCDBF11E0A0E0B1E0ECEFF6E19B
:1000D00002C005900D92A03AB107D9F722E0A0EA3C
:1000E000B1E001C01D92A138B207E1F710E0CDE503
:1000F000D0E004C02197FE010E94670BCC35D107E8
:10010000C9F70E94DE060C947C0B0C94000090E072
:10011000FC01EC55FF4F249180579F4FFC018491C7
:10012000882399F090E0880F991FFC01EA57FF4F50
:10013000A591B491FC01E458FF4F859194918FB73C
:10014000F894EC91E22BEC938FBF089508950895F5
:10015000AF92BF92CF92DF92EF92FF920F931F93D5
:10016000CF93DF936C017B018B01040F151FEB0113
:100170005E01AE18BF08C017D10759F06991D601CA
:10018000ED91FC910190F081E02DC6010995892B3C
:1001900079F7C501DF91CF911F910F91FF90EF90FB
:1001A000DF90CF90BF90AF90089590E0FC01E859A8
:1001B000FF4F2491FC01EC55FF4F3491FC01E057B7
:1001C000FF4FE491EE23C9F0222339F0233001F1EF
:1001D000A8F4213019F1223029F1F0E0EE0FFF1FD1
:1001E000E458FF4FA591B4918FB7F894EC91611149
:1001F00026C030953E233C938FBF08952730A9F049
:100200002830C9F0243049F7809180008F7D03C0E9
:10021000809180008F7780938000DFCF84B58F77C7
:1002200084BDDBCF84B58F7DFBCF8091B0008F770D
:100230008093B000D2CF8091B0008F7DF9CF3E2B5C
:10024000DACF3FB7F8948091530290915402A09175
:100250005502B091560226B5A89B05C02F3F19F054
:100260000196A11DB11D3FBFBA2FA92F982F882736
:10027000BC01CD01620F711D811D911D42E0660F11
:10028000771F881F991F4A95D1F708958F929F92E3
:10029000AF92BF92CF92DF92EF92FF924B015C013F
:1002A0000E9421016B017C010E9421016C197D09D2
:1002B0008E099F09683E734081059105A8F321E0EE
:1002C000821A9108A108B10888EEC80E83E0D81EF2
:1002D000E11CF11C81149104A104B10429F7FF90E1
:1002E000EF90DF90CF90BF90AF909F908F90089548
:1002F00008952091E101260F3327331F2132310564
:10030000ECF420912A02FC0190E080E0243069F0B6
:1003100082E00895A091E1012191AC014F535E4F1D
:10032000A40FB52FB11D2C930196861798F38091D9
:10033000E101680F6093E10180E0089581E0089594
:1003400010922A0281E0809329021092040261E057
:1003500082E10E94D50061E083E10E94D500E9EBD3
:10036000F0E080818E7F808380818D7F808388E430
:100370008093B80085E48093BC000895CF93DF9309
:1003800091E09093C0018823B9F0C091B800D0915A
:10039000BA008091BC008A7B8093BC0060E082E15F
:1003A0000E94D50060E083E10E94D5000E94A00178
:1003B000D093BA00C093B800DF91CF91089508950B
:1003C000E0915E0280915D02E81730F4F0E0E056C3
:1003D000FE4F808190E008958FEF9FEF08959091F8
:1003E0005E0280915D022FEF3FEF981748F4E92FEE
:1003F000F0E0E056FE4F208130E09F5F90935E0278
:10040000C901089580915D0290915E02891B990B4C
:100410000895CF92DF92EF92FF920F931F93CF93A5
:10042000DF937C01CB018A0120913002222389F0E5
:10043000EB016B01C40ED51ECC15DD0569F0699189
:10044000D701ED91FC910190F081E02DC701099554
:10045000F3CF642F0E947901C801DF91CF911F91E2
:100460000F91FF90EF90DF90CF900895CF93DF939F
:100470001F92CDB7DEB76983209130022223F9F0B5
:1004800020915B02203258F021E030E0FC01338300
:10049000228390E080E00F90DF91CF9108958091CA
:1004A0005C02E82FF0E0EF5CFD4F998190838F5F55
:1004B00080935C0280935B0281E090E0ECCF61E08E
:1004C000CE0101960E947901F7CFCF92DF92EF9291
:1004D000FF920F931F93CF93DF93FC01C48121E020
:1004E00020933002C093510210925C0210925B0282
:1004F0008385682B89E692E00E943602D0915B02E8
:10050000D13208F092C00E9421016B017C018091E0
:100510002A02811165C082E080932A0281E08093E3
:1005200029028FEF8093280210922702D09326028F
:10053000A1E3B2E0E6E0F2E080E0D81385C01092DB
:10054000050280910502CC0FC82BC0930502809153
:100550000402813009F07CC0109204020E94210143
:100560006B017C01809105028093BB0080912C027D
:1005700090912D02A0912E02B0912F02892B8A2BEF
:100580008B2B99F00E94210100912C0210912D02D9
:1005900020912E0230912F026C197D098E099F093E
:1005A0000617170728073907E0F18091BC0083FD83
:1005B000D9CF85EC8093BC000E9421016B017C01A6
:1005C00080912A02823009F445C0809128028F3F31
:1005D00061F180912802803241F18091280225C08A
:1005E00080912C0290912D02A0912E02B0912F02A9
:1005F000892B8A2B8B2B09F48ACF0E942101009131
:100600002C0210912D0220912E0230912F026C1994
:100610007D098E099F09061717072807390708F073
:1006200076CF80912B020E94BE0110925C02109244
:100630005B0210923002DF91CF911F910F91FF90DA
:10064000EF90DF90CF9008959D9191938F5F75CF3C
:1006500085EEB0CF80912C0290912D02A0912E02B8
:10066000B0912F02892B8A2B8B2B09F4A9CF0E94E2
:10067000210100912C0210912D0220912E02309127
:100680002F026C197D098E099F0906171707280785
:10069000390708F095CFC5CF90E080E00895FC01C0
:1006A00001900020E9F73197AF01481B590BBC01BD
:1006B00085E792E00C94A8008F929F92AF92BF9230
:1006C0000F931F93CF93DF93CDB7DEB7A1970FB6EC
:1006D000F894DEBF0FBECDBF19A2423008F44AE045
:1006E0008E010F5D1F4F842E912CB12CA12CA501E2
:1006F00094010E943A0BE62FB901CA01EA30F4F4E2
:10070000E05DD801EE938D01232B242B252B79F767
:1007100090E080E0109719F0CD010E944F03A19660
:100720000FB6F894DEBF0FBECDBFDF91CF911F9102
:100730000F91BF90AF909F908F900895E95CE1CFAB
:100740000C944F030F931F93CF938C01C62F0E94DD
:1007500065026C2F6460C8010E9465026C2F6B7F7C
:10076000C8010E94650283EC90E00197F1F7CF91F8
:100770001F910F9108950F931F93CF93DF938C01D7
:10078000D62FC42F607F642B0E94A20380E1D89FE4
:10079000B00111246C2BC801DF91CF911F910F91F3
:1007A0000C94A203CF93DF93CDB7DEB728970FB693
:1007B000F894DEBF0FBECDBF98E0E0E0F1E0DE01CF
:1007C000119601900D929A95E1F790917D029617FE
:1007D00008F46FEF262F30E0220F331F41E050E086
:1007E0004C0F5D1F240F351FF9016081680F606891
:1007F00040E085E792E028960FB6F894DEBF0FBE82
:10080000CDBFDF91CF910C94BB0340E061E085E761
:1008100092E00E94BB038BE39FE10197F1F70895FB
:1008200041E00E94BB0381E090E00895CF92DF9207
:10083000EF92FF926C01990FEE08FF08F7FE16C0C9
:1008400041E06DE285E792E00E94BB0366277727CF
:10085000CB016C197D098E099F094AE00E945C0357
:100860000196FF90EF90DF90CF9008954AE0C70186
:10087000B601FF90EF90DF90CF900C945C034F9205
:100880005F926F927F928F929F92AF92BF92CF9220
:10089000DF92EF92FF920F931F93CF936B017C0136
:1008A000742EAC019B010E94350B882399F086E2DF
:1008B00091E0CF911F910F91FF90EF90DF90CF903B
:1008C000BF90AF909F908F907F906F905F904F9070
:1008D0000C944F0346015701E894B7F82FEF3FEF10
:1008E0004FE75FE7C501B4010E94350B81110DC0D0
:1008F0002FEF3FEF4FE75FE7C501B4010E946B099F
:1009000018161CF48AE291E0D4CF2FEF3FEF4FE7A7
:100910005FE4C701B6010E94C30A18161CF48EE2F8
:1009200091E0C7CF2FEF3FEF4FE75FECC701B60174
:100930000E946B0987FDF3CF20E030E0A901C701D9
:10094000B6010E946B0910E000E087FF0CC041E097
:100950006DE285E792E00E94BB03F7FAF094F7F8A6
:10096000F09401E010E0C0E060E070E080E09FE320
:100970007C1641F020E030E040E251E40E94700932
:10098000CF5FF6CFA70196010E94FF084B015C01E3
:100990000E94E2092B013C014AE00E945C03080F1F
:1009A000191FCC23C9F1C301B2010E94110A9B0196
:1009B000AC01C501B4010E94FE084B015C0141E09D
:1009C0006EE285E792E00E94BB030F5F1F4FC150AC
:1009D00018F120E030E040E251E4C501B4010E948A
:1009E000C80A2B013C010E94E2094B01B12CA12C49
:1009F0004AE0C501B4010E945C03080F191FC5013C
:100A0000B4010E94110A9B01AC01C301B2010E9412
:100A1000FE084B015C01DBCFC801CF911F910F9104
:100A2000FF90EF90DF90CF90BF90AF909F908F900E
:100A30007F906F905F904F90089585ED8093BC00FC
:100A400080912C0290912D02A0912E02B0912F0244
:100A50000796A11DB11D23E0B695A795979587959B
:100A60002A95D1F72091BC0024FD03C010922A02E0
:100A7000089540912C0250912D0260912E027091A8
:100A80002F02452B462B472B69F30097A105B10593
:100A900041F025E32A95F1F700000197A109B1097A
:100AA000E1CF80912B020C94BE011F920F920FB6E2
:100AB0000F9211242F933F938F939F93AF93BF93E4
:100AC00080915F0290916002A0916102B0916202F8
:100AD0003091520223E0230F2D3758F50196A11DC6
:100AE000B11D2093520280935F0290936002A09305
:100AF0006102B09362028091530290915402A091DE
:100B00005502B09156020196A11DB11D809353026A
:100B100090935402A0935502B0935602BF91AF91A7
:100B20009F918F913F912F910F900FBE0F901F902B
:100B3000189526E8230F0296A11DB11DD2CF1F9252
:100B40000F920FB60F9211242F933F934F935F9301
:100B50006F937F938F939F93AF93BF93EF93FF9385
:100B60008091B900887F803609F44AC0F0F5883258
:100B700009F4A7C018F5803109F49BC0B8F48823A4
:100B800009F4F9C0883009F494C0FF91EF91BF9146
:100B9000AF919F918F917F916F915F914F913F9115
:100BA0002F910F900FBE0F901F901895883109F468
:100BB00088C0803251F78093280214C0803409F431
:100BC0009DC040F48033B9F38833F9F6809328024E
:100BD00085ECB0C0803509F485C0883509F496C02D
:100BE000883499F60E941D05D0CF883909F48CC04D
:100BF00038F5883729F050F4883611F0803729F617
:100C000083E080932A021092030257C0883809F4C7
:100C10007BC0803919F0803809F0B7CF809103028A
:100C2000803208F071C0E091030281E08E0F809362
:100C300003028091BB00F0E0ED51FE4F80833DC088
:100C4000803B39F0E0F4803A09F479C0883A09F041
:100C50009CCF84E080932A021092E2011092E1017D
:100C6000E0915902F0915A0209958091E1018111B8
:100C70000FC081E08093E1011092C10109C0803C66
:100C800009F4A6CF883C09F4A3CF883B09F07DCFB7
:100C9000E091E20181E08E0F8093E201F0E0EF53FA
:100CA000FE4F80818093BB009091E2018091E10131
:100CB00029C0809105028093BB0085EC8093BC0025
:100CC00064CF9091270280912602981758F5E09101
:100CD000270281E08E0F80932702F0E0EA5FFD4F4C
:100CE0008081E9CFE091270281E08E0F8093270277
:100CF0008091BB00F0E0EA5FFD4F80839091270276
:100D0000809126029817C8F285E8D8CFE091270293
:100D100081E08E0F809327028091BB00F0E0EA5FB4
:100D2000FD4F80838091290281115CCF81E0809307
:100D3000040284EA8093BC0010922A0226CF85EC3C
:100D40008093BC0010922A0280910302803230F41A
:100D5000E0910302F0E0ED51FE4F1082609103023A
:100D600070E0E0915702F091580283EE91E009950E
:100D7000109203020ACF1092280234CFE9E6F2E083
:100D80001382128288EE93E0A0E0B0E08483958322
:100D9000A683B7838CE091E091838083E5E7F2E05E
:100DA000138212828EE191E09183808387E28483B3
:100DB00080E1818782E0828713860895789484B5E4
:100DC000826084BD84B5816084BD85B5826085BD47
:100DD00085B5816085BD80916E00816080936E00D5
:100DE00010928100809181008260809381008091C7
:100DF0008100816080938100809180008160809378
:100E000080008091B10084608093B1008091B00037
:100E100081608093B00080917A00846080937A0032
:100E200080917A00826080937A0080917A0081605C
:100E300080937A0080917A00806880937A00109283
:100E4000C10010925E0210925D0210925C0210923C
:100E50005B020E94A00186EA90E090935A02809380
:100E6000590287EA90E090935802809357021092BB
:100E70007A0280917F02823018F098E090937A0293
:100E800080937D0262E370E080E090E00E94460182
:100E90006091800285E792E00E94650268EE73E04F
:100EA00080E090E00E94460160E385E792E00E94C6
:100EB000A203CBE4D6E4CE010197F1F760E385E726
:100EC00092E00E94A2032197F1F760E385E792E0A8
:100ED0000E94A20383E592E00197F1F760E285E7C3
:100EE00092E00E94A20360917A02606240E085E78E
:100EF00092E00E94BB0384E080937B0240E06CE0C0
:100F000085E792E00E94BB030E94050482E0809383
:100F10007C0240E066E085E792E00E94BB0340E08F
:100F200062E085E792E00E94BB038BE39FE10197BB
:100F3000F1F788E08093800260E085E792E00E940C
:100F4000650289E00E94870088E00E94870086E0B1
:100F50000E94870060E080E00E94D20382E391E07B
:100F60000E94A00361E080E00E94D2038EE391E042
:100F70000E94A00310E480E3482E85E7582E612CE0
:100F8000712CC0E0D0E08091680281111BC11093E8
:100F90007C0080917A00806480937A0080917A004E
:100FA00086FDFCCF8091780060917900762F682FC4
:100FB000072E000C880B990B0E94130A20E030E0EA
:100FC00040EA50E40E94C80A20E030E040E85AE3DA
:100FD0000E94C80A2AE037ED43E25CE30E947009F0
:100FE0004B015C0120E030E04CE052E40E94C30A77
:100FF00087FD2AC080916702811126C081E080931D
:1010000067022FB7F89480915F0290916002A091DF
:101010006102B09162022FBF8093630290936402D9
:10102000A0936502B09366020E94050460E080E030
:101030000E94D2038AE491E00E94A00360ED77E071
:1010400080E090E00E94460180916702882309F4C5
:10105000C5C061E089E00E94D50061E088E00E949F
:10106000D5008FB7F894C0905F02D0906002E090F6
:101070006102F09062028FBF8091630290916402DE
:10108000A0916502B0916602C81AD90AEA0AFB0A61
:1010900060E080E00E94D2038BE591E00E94A00313
:1010A00060E086E00E94D20381E691E00E94A00306
:1010B00060E08CE00E94D20387E691E00E94A003EA
:1010C00061E080E00E94D20341E0C501B4010E94CA
:1010D0003F048AE691E00E94A00361E086E00E945E
:1010E000D203C301B2016C197D098E099F0928EE54
:1010F00033E040E050E00E943A0BC9010E94160420
:101100008DE691E00E94A00361E08CE00E94D20392
:10111000A4E6B0E0A70196010E945C0BA301920136
:101120000E943A0BC9010E94160480E791E00E94D8
:10113000A0032FB7F89480915F0290916002A09174
:101140006102B09162022FBF40916302509164022C
:101150006091650270916602841B950BA60BB70B1C
:1011600080339547A105B10568F160E089E00E94F0
:10117000D50060E088E00E94D50061E086E00E9432
:10118000D50060ED77E080E090E00E94460160E0ED
:1011900086E00E94D5001092670281E08093680289
:1011A0000E94050460E080E00E94D20383E791E0A2
:1011B0000E94A00361E080E00E94D20381E891E0F8
:1011C0000E94A00364EF71E080E090E00E9446017D
:1011D000209709F4D8CE0E940000D5CE60E080E0D0
:1011E0000E94D20381E991E00E94A00341E0C50181
:1011F000B4010E943F0488E991E0E2CF5058BB2738
:10120000AA270E9416090C94890A0E947B0A38F0CA
:101210000E94820A20F039F49F3F19F426F40C94BE
:10122000780A0EF4E095E7FB0C94720AE92F0E940D
:101230009A0A58F3BA17620773078407950720F0D4
:1012400079F4A6F50C94BC0A0EF4E0950B2EBA2F97
:10125000A02D0B01B90190010C01CA01A0011124BC
:10126000FF27591B99F0593F50F4503E68F11A1668
:10127000F040A22F232F342F4427585FF3CF4695F9
:1012800037952795A795F0405395C9F77EF41F161B
:10129000BA0B620B730B840BBAF09150A1F0FF0FE5
:1012A000BB1F661F771F881FC2F70EC0BA0F621FD1
:1012B000731F841F48F4879577956795B795F795C1
:1012C0009E3F08F0B0CF9395880F08F09927EE0F56
:1012D0009795879508950E944E0A08F481E0089535
:1012E0000E9484090C94890A0E94820A58F00E9484
:1012F0007B0A40F029F45F3F29F00C94720A5111E7
:101300000C94BD0A0C94780A0E949A0A68F39923F7
:10131000B1F3552391F3951B550BBB27AA276217F1
:101320007307840738F09F5F5F4F220F331F441FFE
:10133000AA1FA9F335D00E2E3AF0E0E832D0915032
:101340005040E695001CCAF72BD0FE2F29D0660F1F
:10135000771F881FBB1F261737074807AB07B0E862
:1013600009F0BB0B802DBF01FF2793585F4F3AF068
:101370009E3F510578F00C94720A0C94BD0A5F3FB1
:10138000E4F3983ED4F3869577956795B795F795EE
:101390009F5FC9F7880F911D9695879597F90895D6
:1013A000E1E0660F771F881FBB1F62177307840772
:1013B000BA0720F0621B730B840BBA0BEE1F88F781
:1013C000E09508950E94A20A88F09F5798F0B92FDF
:1013D0009927B751B0F0E1F0660F771F881F991F6A
:1013E0001AF0BA95C9F714C0B13091F00E94BC0A46
:1013F000B1E008950C94BC0A672F782F8827B85F56
:1014000039F0B93FCCF3869577956795B395D9F7C1
:101410003EF490958095709561957F4F8F4F9F4FCB
:101420000895E89409C097FB3EF4909580957095D7
:1014300061957F4F8F4F9F4F9923A9F0F92F96E920
:10144000BB279395F695879577956795B795F11195
:10145000F8CFFAF4BB0F11F460FF1BC06F5F7F4F32
:101460008F4F9F4F16C0882311F096E911C0772344
:1014700021F09EE8872F762F05C0662371F096E84D
:10148000862F70E060E02AF09A95660F771F881F1C
:10149000DAF7880F9695879597F90895990F0008C0
:1014A000550FAA0BE0E8FEEF16161706E807F90736
:1014B000C0F012161306E407F50798F0621B730BD1
:1014C000840B950B39F40A2661F0232B242B252B52
:1014D00021F408950A2609F4A140A6958FEF811DF5
:1014E000811D089597F99F6780E870E060E0089596
:1014F0009FEF80EC089500240A941616170618062C
:101500000906089500240A94121613061406050607
:101510000895092E0394000C11F4882352F0BB0F98
:1015200040F4BF2B11F460FF04C06F5F7F4F8F4FFB
:101530009F4F089557FD9058440F551F59F05F3F36
:1015400071F04795880F97FB991F61F09F3F79F0E5
:1015500087950895121613061406551FF2CF469567
:10156000F1DF08C0161617061806991FF1CF8695E9
:101570007105610508940895E894BB2766277727CD
:10158000CB0197F908950E944E0A08F48FEF089551
:101590000E94DB0A0C94890A0E947B0A38F00E94A0
:1015A000820A20F0952311F00C94720A0C94780AA8
:1015B00011240C94BD0A0E949A0A70F3959FC1F3FE
:1015C000950F50E0551F629FF001729FBB27F00DF1
:1015D000B11D639FAA27F00DB11DAA1F649F662746
:1015E000B00DA11D661F829F2227B00DA11D621F95
:1015F000739FB00DA11D621F839FA00D611D221F4F
:10160000749F3327A00D611D231F849F600D211D32
:10161000822F762F6A2F11249F5750409AF0F1F0B5
:1016200088234AF0EE0FFF1FBB1F661F771F881F1E
:1016300091505040A9F79E3F510580F00C94720ADA
:101640000C94BD0A5F3FE4F3983ED4F386957795FA
:101650006795B795F795E7959F5FC1F7FE2B880FC4
:10166000911D9695879597F908950E944E0A880BCB
:10167000990B0895A1E21A2EAA1BBB1BFD010DC0F8
:10168000AA1FBB1FEE1FFF1FA217B307E407F50732
:1016900020F0A21BB30BE40BF50B661F771F881F0E
:1016A000991F1A9469F760957095809590959B01A4
:1016B000AC01BD01CF0108950E946D0BA59F900D57
:1016C000B49F900DA49F800D911D11240895EE0FDD
:1016D000FF1F0590F491E02D0994A29FB001B39FE4
:1016E000C001A39F700D811D1124911DB29F700D2B
:0C16F000811D1124911D0895F894FFCF76
:1016FC0000004000140054000000000036020902F3
:10170C004C03DF010202EF01E001000000001004B5
:10171C00A8004C0378016E616E00696E66006F76EE
:10172C00660057616974696E6720666F7200546554
:10173C006D70203E3D2033354300436F6F6B696EF7
:10174C0067205374617274696E670054656D703AEA
:10175C000054696D653A00253A004320007320005F
:10176C00252000436F6F6B696E6720456E6465645E
:10177C0000456E6A6F7920796F7572206D65616CAA
:10178C000054656D703A200020432020202000007A
:00000001FF
